:020000040800F2
:1000000028050020450100084D0100084F010008A7
:1000100051010008530100085501000800000000CC
:100020000000000000000000000000005701000870
:1000300059010008000000005B0100085D01000894
:1000400047190008810F00089515000829130008BA
:10005000CF040008B1110008C1040008C50400085D
:10006000C7040008C9040008CB040008BD0100084B
:10007000BF010008C1010008C3010008C501000854
:10008000C9010008190200088D0100085F0100087D
:100090005F0100085F0100085F010008CD0400084F
:1000A0005F0100085F0100085F0100089715000864
:1000B00099150008C1150008E1150008230D000876
:1000C000210D0008270D0008250D0008291400083F
:1000D0002B1400085D170008611700088917000835
:1000E000C304000873120008451900085F010008E6
:1000F0005F0100085F010008E91500088F01000892
:10010000FD04000827140008E31500082D1400085A
:10011000591700085B170008E5150008E7150008E7
:100120005502000857020008590200085B02000847
:10013000DFF80CD000F018F80048004769190008F3
:10014000280500200648804706480047FEE7FEE7EE
:10015000FEE7FEE7FEE7FEE7FEE7FEE7FEE7FEE777
:10016000F514000831010008064C074D06E0E06870
:1001700040F0010394E8070098471034AC42F6D3EE
:10018000FFF7DAFF682200088822000870477047EE
:1001900010B5012000F020FFBDE81040002000F065
:1001A0001BBF00000149085A70470000006C004066
:1001B000014A115070470000006C004070477047C2
:1001C000704770477047000070B54FF4001000F0A2
:1001D000CFF8002817D000210B4800F049F84FF461
:1001E000801000F03BF8094C094D2146284600F0EC
:1001F0009BFD0028F9D00121284600F0B5FD0549F6
:100200000020C968087070BD6C00024084000700BF
:10021000005400401400002010B54FF0007000F0B2
:10022000A7F800280FD00121074800F09DFD00210C
:10023000064800F01DF84FF0807000F00FF80449F8
:1002400000208968088010BD0054004080000240F2
:100250001400002070477047704770470349C20080
:1002600002D5C1F80404704748607047000002409E
:100270000029016802D041F0010101E021F00101F3
:10028000016070470268002122F0010202600160F3
:1002900041608160C1603449334A0839904203D1DA
:1002A000486840F00F0006E02F4A1432904204D113
:1002B000486840F0F000486070472B4A283290426E
:1002C00003D1486840F47060F5E7274A3C32904219
:1002D00003D1486840F47040EDE7234A5032904221
:1002E00003D1486840F47020E5E71F4A6432904229
:1002F00003D1486840F47000DDE71B4A7832904231
:1003000003D1486840F07060D5E7184A904204D1A4
:10031000D1F8040440F00F0007E0144A1432904270
:1003200006D1D1F8040440F0F000C1F8040470478D
:100330000E4A2832904204D1D1F8040440F470608F
:10034000F3E70A4A3C32904204D1D1F8040440F465
:100350007040EAE7054A50329042E8D1D1F80404EF
:1003600040F47020E1E70000080002400804024069
:1003700001460020054ACB0002D5D2F8002400E057
:1003800012680A4200D001207047000000000240BD
:10039000002A026801D00A4300E08A4302607047E5
:1003A00070B5036847F6F0729343D1E904460D6ACD
:1003B0008A6834432A432243D1E906542A4322431C
:1003C000D1E909542A4322431A430260CA684260B1
:1003D0000A6882604968C16070BD70B50820FFF787
:1003E000E1FEC4B20C20FFF7DDFEC5B21020FFF71E
:1003F000D9FE0646012C16D0032C14D0052C12D0A1
:10040000072C10D0082C0ED00A2C0CD00C2C0AD0A3
:10041000042C14D0062C12D0092C10D00B2C0ED08A
:10042000022C0FD021E01F2D36D30C2C02D0641CDF
:10043000E4B219E00124461C2546B6B215E01E2D93
:100440002AD3F4E71C2D27D34FF4C870B6FBF0F184
:1004500000FB116000B36420B6FBF0F100FB1160FB
:10046000D0B1B00718D003240125012000F08AFD87
:1004700021460820FFF79CFE012000F083FD29465D
:100480000C20FFF795FE012000F07CFD3146BDE811
:1004900070401020FFF78CBE6D1CEDB2E5E700E068
:1004A000401E0028FCD1704704E00A21491E0904BF
:1004B000090CFBD10100A0F1010080B2F5D1704719
:1004C0007047704770477047704770477047704774
:1004D00004490A6822F010020A600A6802430A60AE
:1004E0007047000000200240034A116801F0380103
:1004F0000143116070470000002002407047000077
:100500002DE9F84F01214FF4FE7000F059FD4FF630
:10051000FF70ADF8000000208DF803006946C44864
:1005200000F096F96946C34800F092F96946C2485E
:1005300000F08EF9DFF804A36946504600F088F910
:10054000DFF8FCB26946584600F082F96946BD48BA
:1005500000F07EF96946BC4800F07AF900214FF4BA
:10056000FE7000F02DFD0121042000F029FD012185
:10057000202000F025FD0121202000F021FD012197
:10058000042000F01DFD0121080200F019FD0121E9
:10059000402000F015FD0121082000F011FD01218F
:1005A000102000F00DFD0121202000F009FD0121A7
:1005B000080200F005FD0121042000F001FD0121E9
:1005C000082000F0FDFC0121084600F0F9FC0121A3
:1005D0009E4800F08FF90425ADF8005003248DF8F3
:1005E00002404FF018088DF803806946904800F0EB
:1005F0002FF94FF00809ADF800908DF803506946C7
:100600008B4800F025F9EF01ADF800708DF802403D
:100610008DF803806946864800F01AF92E02ADF87D
:1006200000608DF803506946814800F011F9ADF87B
:1006300000608DF802408DF8038069467D4800F027
:1006400007F94FF40068ADF800808DF80350694653
:10065000784800F0FDF8ADF8004010258DF8035003
:100660008DF802406946784800F0F2F8FC20ADF8B9
:1006700000008DF803508DF802406946724800F082
:10068000E7F8ADF800608DF803508DF80240694638
:100690006D4800F0DDF8ADF800808DF803508DF85E
:1006A00002406946684800F0D3F8ADF800708DF854
:1006B00003508DF802406946634800F0C9F82802EB
:1006C000ADF800008DF803508DF8024069465E4891
:1006D00000F0BEF84FF40058ADF800808DF80350DC
:1006E0008DF802406946584800F0B2F8ADF8006055
:1006F0008DF803508DF802406946504600F0A8F886
:10070000ADF800708DF803508DF8024069465046F0
:1007100000F09EF8ADF800508DF803508DF80240BF
:100720006946434800F094F81F20ADF800008DF8AA
:1007300003508DF802406946584600F089F84FF49E
:10074000FC60ADF8000048268DF803608DF802408B
:100750006946584600F07CF8781EADF800008DF828
:1007600003508DF802406946334800F071F84FF4A9
:100770005240ADF800008DF803508DF802406946F4
:100780002C4800F065F8ADF800708DF803608DF826
:1007900002406946284800F05BF8ADF800808DF80B
:1007A00003608DF802406946224800F051F82801A4
:1007B000ADF800008DF803608DF8024069461D48D1
:1007C00000F046F8EF02ADF800708DF803508DF898
:1007D000024069461C4800F03BF8ADF800708DF807
:1007E00003508DF802406946114800F031F820208E
:1007F000ADF800008DF803508DF8024069460D48B1
:1008000000F026F8ADF800908DF803508DF8024006
:100810006946084800F01CF8ADF800508DF80360F8
:100820008DF802406946034800F012F8BDE8F88FE1
:1008300000080140000C014000100140001401407C
:1008400000180140001C014000200140000230005F
:100850002DE9F041CA780025D30602F00F0201D538
:100860008B781A430B884FF00F084FF0010C13F0F0
:10087000FF0F1CD0D0F800400E880CFA05F31E4084
:100880009E4210D1AF0008FA07F624EA060602FAE3
:1008900007F43443CE78282E02D0482E02D002E04E
:1008A000436100E003616D1C082DE5D304600B88F3
:1008B000FF2B1DD94468002505F108060CFA06F344
:1008C0000E881E409E420FD1AF0008FA07F624EAB8
:1008D000060602FA07F43443CE78282E00D143618D
:1008E000CE78482E00D103616D1C082DE4D34460FE
:1008F000BDE8F081F0B5144C002801DAE36900E0AE
:100900006368420D120185B2C0F301579540C0F3F0
:100910000346032F05D0C2020AD50322B2409343F7
:1009200007E023F07062636823F07063636002E0A5
:10093000AB4343F0706201B12A43002801DAE2615F
:10094000F0BD6260F0BD000000000140C06880B2F0
:1009500070474161704701617047C1607047000096
:1009600070B5124800F0C4FF114AC1B200231170E3
:100970005578104C10480A2D02D00D2D04D009E0F6
:100980000D2907D1038008E0532903D10B4D2D78A1
:10099000012DF7D00588942D04D203885D1CE15405
:1009A000058001E061550380517070BD0044004036
:1009B0005C000020640000203E0000204000002079
:1009C00070B5AF2000F014F80024204600F088F93C
:1009D000002000F02BF80025002000F035F86D1CF9
:1009E000EDB2802DF8D3641CE4B2082CEDD970BDB3
:1009F00070B500F01DFD0C4D4FF480642146284673
:100A0000FFF7A7FFA60031462846FFF7A2FF0A20FE
:100A1000FFF745FD31462846FFF79DFF2146284652
:100A2000BDE87040FFF797BF0020014010B50446B5
:100A3000C0F30300FFF7DCFF102040EA1410BDE80C
:100A40001040FFF7D5BF000070B500F0F1FC0C4D71
:100A50004FF4806421462846FFF77BFFA60031460D
:100A60002846FFF776FF0A20FFF719FD21462846A2
:100A7000FFF771FF31462846BDE87040FFF76BBFB6
:100A8000002001402DE9FF5F07468B46AF20FFF7AE
:100A9000AFFF584600F024F9DFF8F4904C4699F87F
:100AA0000100FFF7C3FFDFF8ECA020790626E8B3CA
:100AB00000250DF1080816E002AA694600F06CF85E
:100AC0005FF0000418F80400FFF7BEFF99F8050076
:100AD00018B118F80400FFF7B7FF641CE4B2B44281
:100AE000F0D36D1CEDB2785D0028E5D1AF20FFF7A3
:100AF0007FFF0BF10100C0B200F0F2F84D4699F80B
:100B00000100FFF793FF0024E846A94617E002AA78
:100B1000694600F041F8002518F80500FFF794FF3A
:100B200099F8050028B118F8050000E00BE0FFF780
:100B30008BFF6D1CEDB2B542EED3641CE4B2385DA0
:100B40000028E4D11CE0002417E0704300250AEBE4
:100B5000400800BF38F81500C0B2FFF775FF99F8DC
:100B6000050020B138F81500C0B2FFF76DFF6D1C0D
:100B7000EDB2B542EED3641CE4B2385D0028E4D196
:100B800099F8011004FB061189F80110BDE8FF9FD8
:100B900024000020681C0008F0B50023DFF8A8E05E
:100BA0009C4600EB400600BF01F803C002F803C0FA
:100BB00003EB46003EF81040C4F3031004F00F04AA
:100BC000C50705D001EB03052F7847F003072F7009
:100BD000850705D501EB03052F7847F00C072F702B
:100BE000450705D501EB03052F7847F030072F7037
:100BF000000705D501EB0300057845F0C005057039
:100C0000E00705D002EB0300057845F00305057009
:100C1000A00705D502EB0300057845F00C0505702B
:100C2000600705D502EB0300057845F03005057037
:100C3000200704D5D018047844F0C00404705B1C6D
:100C4000DBB2062BB0D3F0BD681C000870B5642081
:100C5000FFF72AFC204D4FF4006421462846FFF799
:100C600078FE3220FFF720FC21462846FFF773FE6E
:100C70000520FFF719FCA220FFF7BAFEC820FFF7F6
:100C8000B7FE2520FFF7B4FE8120FFF7B1FE20203C
:100C9000FFF7AEFE0020FFF7ABFE2F20FFF7A8FE08
:100CA000AC20FFF7A5FEA420FFF7A2FE4020FFF72F
:100CB0009FFEAF20FFF79CFEB020FFF799FE1020AB
:100CC000FFF796FE0020FFF793FEFFF779FE03493A
:100CD00000200871487170BD0020014024000020F0
:100CE00010B5092819D2DFE800F01805070C0E101E
:100CF00012141600B02000E0B120FFF779FE0020AA
:100D000010BDB220F9E7B320F7E7B420F5E7B5202E
:100D1000F3E7B620F1E7B720EFE74FF0FF3010BD63
:100D20007047704770477047838A0022008B43EA00
:100D3000004323F07F40814300D1012210467047D9
:100D40000029018802D041F0010101E021F00101F8
:100D5000018070470029818802D041F4006101E0E0
:100D600021F40061818070470029018802D041F49C
:100D7000007101E021F400710180704770B50446F4
:100D8000808886B00D4620F03F06684600F080F966
:100D900026490298B0FBF1F189B20E43A680228861
:100DA00022F001022280224B2A689A421CD852006B
:100DB000B0FBF2F080B2042800D20420491C218448
:100DC000A083208840F00100208021884FF6F53074
:100DD0000140A8886A89104308432080A88929898E
:100DE0000843208106B070BDEB88A3F53F46FF3E67
:100DF00005D102EB4202B0FBF2F080B208E002EB58
:100E0000C20303EB0212B0FBF2F080B240F4804068
:100E1000020501D140F001004FF4967251434FF4A6
:100E20007A72B1FBF2F140F40040C7E740420F0094
:100E3000A0860100044800218170C1700122027166
:100E400041718171C17170472C000020F8B54FF4D9
:100E5000C06000F081F800214FF0006000F086F8DB
:100E600025208DF8000000258DF8015001248DF813
:100E700002408DF80340684600F040F826208DF8C7
:100E800000008DF8015002268DF802608DF80340B5
:100E9000684600F033F827208DF800008DF80150E7
:100EA0008DF802608DF80340684600F027F81D2099
:100EB0008DF800008DF8015003268DF802608DF842
:100EC0000340684600F01AF81C208DF800008DF8E9
:100ED000015004208DF802008DF80340684600F0B0
:100EE0000DF88DF800608DF8015005208DF8020096
:100EF0008DF80340684600F001F8F8BDF0B50F2208
:100F0000C57803784FF0E0210124E5B1D1F80C5DFC
:100F1000467805F4E065C5F5E0652D0AC5F10407DE
:100F2000EA408578BE40154035430B442A0183F8DA
:100F300000240078420900F01F00844001EB820089
:100F4000C0F80041F0BD03F01F008440580901EBD8
:100F50008000C0F88041F0BD0249084302490860A2
:100F6000704700000000FA050CED00E0024A114055
:100F7000014302480160704780FFFF1F08ED00E059
:100F800070470000014908627047000000000E42EF
:100F9000044A0029516901D0014300E081435161B5
:100FA0007047000000100240044A0029D16901D0B6
:100FB000014300E08143D16170470000001002400E
:100FC000044A0029916901D0014300E08143916105
:100FD000704700000010024001490860704700009F
:100FE0004004424210B500F033F84FF480342046FC
:100FF00000F0C4F800F02AF9012821D11020FFF7F1
:1010000067FA0220FFF770FA002000F0ADF8002028
:1010100000F0EAF8A01100F0DDF82101204600F010
:10102000F3F8012000F0EAF8392000F07DF80028FC
:10103000FAD0022000F000F900F08EF80828FBD169
:10104000BDE8104001214FF0C050FFF7ADBF0000D8
:101050000C48016841F00101016041680A4A1140F1
:1010600041600168094A11400160016821F4802152
:10107000016042684FF41F0122F4FE024260816069
:1010800070470000001002400000FFF8FFFFF6FE6E
:10109000214910B54B68214A13F00C0303D0042BEF
:1010A00001D0082B26D002604A681D4B02F0F002E6
:1010B00012099C5C0268E24042604C6804F4E064FF
:1010C000240A1C5D22FA04F484604C6804F4605421
:1010D0004FEAD4241B5D22FA03F2C2604968104B28
:1010E00001F440414FEA91311B1F595CB2FBF1F111
:1010F000016110BD4A684B68022402F4701204EBCF
:10110000924213F4803F02D04B689B0301D5054BFC
:1011100000E0024B5A43C6E70010024000127A007A
:101120000400002000093D0002460020530909493F
:10113000012B0BD0022B0BD0D1F8241002F01F0290
:10114000012393400B4200D0012070470968F5E766
:10115000096AF3E7001002400248406800F00C0002
:101160007047000000100240034A516821F0F0016E
:101170000143516070470000001002400B490A68AB
:1011800022F480320A600A68B0F5803F22F480229F
:101190000A6007D0B0F5802F03D1086840F4A02082
:1011A00008607047086840F48030F9E7001002409A
:1011B00070470000064900220A7001F82029012822
:1011C00002D0042802D1052081F8200070470000D9
:1011D00020100240034A516821F4E061014351604C
:1011E000704700000010024003494A6822F4605230
:1011F00042EAC0004860704700100240014908669A
:101200007047000000004242034A5368084323F439
:101210007C13184350607047001002400149086079
:10122000704700003C04424202490A6A02430A62D3
:101230007047000000100240034A516821F003018A
:1012400001435160704700000010024030B5002497
:101250004FF4A0653120FFF767FF641CAC4201D05A
:101260000028F7D03120FFF75FFF002800D00120D1
:1012700030BD10B500F0ACF8002000F08BF800F0A5
:10128000A7F8FFF7AAF8BDE810400220AFF30080EE
:1012900002490A8822EA00020A80704704280040B6
:1012A00010B50120FFF76EFEFEF772FF0120FFF779
:1012B00081FF4120FFF738FF0028FAD04FF48070FB
:1012C000FFF7B2FF0120FFF7A9FF00F08BF80948F4
:1012D00000F052F800F07CF80121084600F03EF8DA
:1012E00000F076F847F6FF7000F062F8BDE81040B5
:1012F00000F06EB8805101000248018841F01001F1
:1013000001807047042800400248018821F0100144
:10131000018070470428004002488188008841EA23
:10132000004070471828004010B50120FFF7B0FFBB
:1013300000F04EF8FFF7F0FF074988420AD300F0AB
:1013400047F8002000F026F800F042F8BDE8104011
:10135000FFF743B810BD000080510100054A002985
:10136000B2F8001801D0014300E08143A2F8001850
:10137000704700000020004000B50246FFF7BCFFA8
:101380000348110C018082805DF804EBFFF7BCBFBD
:101390002028004000B50246FFF7AEFF0348110CBD
:1013A000018082805DF804EBFFF7AEBF1828004093
:1013B00000B50246FFF7A0FF0448C2F303410180D5
:1013C00082805DF804EBFFF79FBF00000828004013
:1013D000034800BFB0F804188906FBD57047000029
:1013E000002000400648B0F8041821F00801A0F8D9
:1013F000041800BFB0F804180907FBD570470000B7
:101400000020004010B50420FEF7CCFE4AF2A5549F
:10141000A04207D0FFF744FF2146BDE8104004205A
:10142000FEF7C6BE10BD704770477047704700009A
:1014300070B5064D04462846FFF788FA00F47F4150
:1014400021432846BDE87040FFF787BA00200140DD
:1014500021480021026842F4803202604FF4A06308
:101460000268491C12F4003F01D19942F8D1016889
:10147000890330D519490A6842F010020A600A68E7
:1014800022F003020A600A6842F002020A60416820
:10149000416041684160416841F480614160416858
:1014A00021F47C114160416841F4E8114160016818
:1014B00041F08071016001688901FCD5416821F02B
:1014C00003014160416841F0020141604168C1F39C
:1014D00081010229FAD17047001002400020024029
:1014E0000146002001E0401C80B20A5C002AFAD1CB
:1014F000704700000C48016841F00101016041683B
:101500000A4A114041600168094A114001600168BE
:1015100021F480210160416821F4FE0141604FF413
:101520001F018160FFF794BF001002400000FFF828
:10153000FFFFF6FE10B5FFF77DFCFFF753FDFEF74A
:10154000DFFF0F4C02234FF496325903204600F080
:101550002CF901234FF4C84299040A4800F025F9F8
:10156000FFF750FF00F0AAF8FFF770FC00F0E0FA78
:10157000FFF76CFB2046BDE8104003A100F0CFB997
:10158000003801400048004068656C6C6F20776F40
:10159000726C6400704770474FF08041088AC00742
:1015A0000BD006484268521C4260052A01D1002235
:1015B0004260088A20F00100088270475C00002029
:1015C00010B54FF08044B4F81004C00707D000F005
:1015D000D7F9B4F8100420F00100A4F8100410BDED
:1015E000704770477047704770470029018802D0E4
:1015F00041F0010101E021F0010101807047002A62
:10160000828901D00A4300E08A43828170470189C0
:1016100021F0070101817047018582827047000037
:1016200030B502881B4B1C4C98420DD0A0420BD009
:10163000B0F1804F08D0194DA84205D0184DA842EE
:1016400002D0184DA84203D122F070054A882A43DF
:10165000154DA84206D0154DA84203D022F440757E
:10166000CA882A4302808A88984282850A8802852D
:101670000AD0A04208D00E4A904205D00D4A9042AE
:1016800002D00D4A904201D1097A0186012181825E
:1016900030BD0000002C0140003401400004004037
:1016A00000080040000C0040001000400014004002
:1016B000004001400044014000480140FEB50121C6
:1016C0000846FFF771FC0A204FF4E155ADF8000021
:1016D0000024ADF804504607ADF80640ADF80240CE
:1016E00069463046FFF79CFF01220A213046FFF78A
:1016F00093FF012211463046FFF781FF3046FFF786
:1017000086FF01213046FFF770FF01210220FFF71D
:101710004BFC0320ADF80450ADF80000ADF80640D6
:10172000ADF802400B4C69462046FFF779FF0122D5
:1017300003212046FFF770FF012211462046FFF7E4
:101740005EFF2046FFF763FF01212046FFF74DFFB4
:10175000FEBD000000040040704770477047000065
:1017600010B5084C2021204600F048F818B1BDE81B
:101770001040FFF7F5B82046BDE81040012100F009
:1017800004B800000044004070470A0A012191405B
:10179000C943018070470029818902D041F400517A
:1017A00001E021F40051818170477FB5054608466C
:1017B0001446012B4FF001011DD0FFF701FC002062
:1017C000ADF80400ADF80600ADF80800ADF80C0067
:1017D0000C20ADF80A0000946946284600F02EF867
:1017E000012240F22551284600F00FF80121284639
:1017F000FFF7D1FF7FBDFFF7D7FBE0E702460020F0
:1018000012880A4200D00120704710B5C1F342137C
:1018100001F01F040121A140012B07D0022B07D0AA
:101820001430002A026805D00A4304E00C30F8E7BF
:101830001030F6E78A43026010BD000030B5044660
:10184000008A85B00D464CF6FF710840E9880143D7
:101850002182A1894EF6F3100140A8882A891043FD
:101860006A890A431043A081A08A4FF6FF410840CD
:10187000A9890143A1826846FFF70AFC1B488442FC
:1018800001D1039800E00298A1890904002900EB26
:10189000C00101EB0010296802DA4FEA410101E0C2
:1018A0004FEA8101B0FBF1F06422B0FBF2F14FEAA4
:1018B00001114FEA11136FF018056B43A58900EB76
:1018C00083004FF032032D0406D503EBC000B0FBBC
:1018D000F2F000F0070005E003EB0010B0FBF2F0BF
:1018E00000F00F000843208105B030BD00380140F2
:1018F0008088C0F30800704770B504460D4640214B
:101900002046FFF77BFF0028F9D029462046BDE896
:101910007040AFF30080C1F308018180704770B55B
:1019200006460D46002404E03046FFF7E5FF641C40
:1019300024B2295D0029F7D13046BDE870400D2161
:10194000FFF7DABF7047704702E008C8121F08C1EE
:10195000002AFAD170477047002001E001C1121F30
:10196000002AFBD170470000FFF7E4FD0021034887
:10197000FFF788F80148FFF7B3FDFEE741000020BC
:101980002DE9F04162480178002978D16149097850
:10199000012974D1604C2178604F614D4FF400767D
:1019A0004FF0010810293CD2DFE801F0081A1C2290
:1019B000282E13151A1C22282E1334393146384686
:1019C00004E02078401C20702BE02846FEF7C3FF7F
:1019D000F7E702211FE001212846FEF7BAFFEDE7F5
:1019E0001021F2E731463846FEF7B3FF0821ECE755
:1019F00010212846FEF7ADFF0421E6E7082128461E
:101A0000FEF7A7FF0221E0E704212846FEF7A1FF29
:101A10000121DAE701212846FEF79BFFD1E780F894
:101A20000080404C20784FF4807610283AD007DCB4
:101A300078B1042812D0082822D00C2858D128E0E8
:101A400014283CD018283AD01C2841D01F284FD148
:101A500051E020212846FEF77EFF03E020212846A2
:101A6000FEF777FF40212846FEF773FF80212846C6
:101A7000FEF76FFF31462846FEF76DFF38E044E081
:101A800020212846FEF765FF40212846FEF763FF28
:101A9000ECE720212846FEF75CFF40212846FEF7B0
:101AA0005AFF1DE020212846FEF753FF402128461B
:101AB000FEF751FF80212846FEF74DFF14E020215C
:101AC0002846FEF746FF40212846FEF742FFF1E791
:101AD00020212846FEF73FFF40212846FEF739FF28
:101AE00080212846FEF735FF31462846FEF731FFB4
:101AF0002078401C08E00C490A780020012A03D114
:101B000008700A4A82F800802070BDE8F081000069
:101B1000300000203100002032000020000C014085
:101B200000100140330000202F0000203C00002066
:101B30007FB500F029F80020ADF804004BF6FF70E7
:101B4000ADF80600A024ADF808404FF48060ADF871
:101B50000A000001ADF80C000848094D0090012171
:101B60002846FFF7EDF869462846FFF707F90121F7
:101B70002846FFF7EFF8034844807FBD400D03007F
:101B800000540040140000202DE9FC4101210820F0
:101B9000FFF716FA01214805FFF706FA4020ADF8D5
:101BA000040003208DF806001C202B4C8DF8070044
:101BB00001A92046FEF74CFE8025ADF8045001A98E
:101BC0002046FEF745FE10268DF8006000248DF8B3
:101BD00001408DF8024001208DF803006846FFF7B0
:101BE0008DF911208DF800008DF801408DF802402C
:101BF0006846FFF783F901210846FFF7C9F9174F37
:101C00003846FEF73FFB1748154900F10C0280E803
:101C100052004FF6FF7132C284614FF44051C461EB
:101C2000C0E90841014684623846FEF7B9FB0B4C17
:101C300014342046FEF726FB0A492046FEF7B0FB87
:101C4000012202213846FEF7A3FB01220221204691
:101C5000FEF79EFBBDE8FC81000C01406C000240D9
:101C600010540040FC0000200000000000000000B4
:101C70000000000000000000000000000000000064
:101C80000000000000000000000000000000000054
:101C90000000000000000000000000000000000044
:101CA0000000000000000000000000000000000034
:101CB0000000000000000000000000000000000024
:101CC0000000000000000000000000000000000014
:101CD0000000000000000000000000000000000004
:101CE00000000000000000000000000000000000F4
:101CF00000000000000000000000000000000000E4
:101D000000000000000000000000000000000000D3
:101D100000000000000000000000000000000000C3
:101D200000000000000000000000000000000000B3
:101D300000000000000000000000000000000000A3
:101D40000000000000000000000000000000000093
:101D50000000000000000000000000000000000083
:101D60000000000000000000000000000000000073
:101D70000000000000000000000000000000000063
:101D80000000000000000000000000000000000053
:101D90000000000000000000000000000000000043
:101DA0000000000000000000000000000000000033
:101DB0000000000000000000000000000000000023
:101DC0000000000000000000000000000000000013
:101DD0000000000000000000000000000000000003
:101DE00000000000000000000000000000000000F3
:101DF00000000000000000004F0000000000000094
:101E000000000700000007000000000014007F0031
:101E100014007F001400000024002A007F002A0024
:101E2000120000002300130008006400620000009C
:101E30003600490055002200500000000000050057
:101E4000030000000000000000001C002200410010
:101E5000000000000000410022001C000000000003
:101E6000140008003E0008001400000008000800EC
:101E70003E00080008000000000050003000000094
:101E8000000000000800080008000800080000002A
:101E90000000600060000000000000002000100052
:101EA00008000400020000003E0051004900450007
:101EB0003E000000000042007F00400000000000E3
:101EC000420061005100490046000000210041002D
:101ED00045004B00310000001800140012007F0084
:101EE00010000000270045004500450039000000B3
:101EF0003C004A0049004900300000000100710028
:101F000009000500030000003600490049004900AF
:101F10003600000006004900490029001E000000AC
:101F200000003600360000000000000000005600EF
:101F300036000000000000000800140022004100EC
:101F4000000000001400140014001400140000002D
:101F500000004100220014000800000002000100FF
:101F600051000900060000003200490079004100DC
:101F70003E0000007E001100110011007E000000F4
:101F80007F00490049004900360000003E00410042
:101F900041004100220000007F004100410022007A
:101FA0001C0000007F00490049004900410000007A
:101FB0007F00090009000900010000003E00410007
:101FC000490049007A0000007F000800080008006E
:101FD0007F000000000041007F0041000000000081
:101FE0002000400041003F00010000007F00080089
:101FF00014002200410000007F004000400040002B
:10200000400000007F0002000C0002007F00000082
:102010007F000400080010007F0000003E00410027
:10202000410041003E0000007F0009000900090056
:10203000060000003E004100510021005E0000004B
:102040007F000900190029004600000046004900F1
:102050004900490031000000010001007F0001003B
:10206000010000003F004000400040003F00000031
:102070001F002000400020001F0000003F00400023
:10208000380040003F000000630014000800140006
:10209000630000000700080070000800070000004F
:1020A00061005100490045004300000000007F002E
:1020B0004100410000000000020004000800100080
:1020C000200000000000410041007F0000000000EF
:1020D0000400020001000200040000004000400073
:1020E0004000400040000000000001000200040029
:1020F000000000002000540054005400780000004C
:102100007F004800440044003800000038004400CC
:10211000440044002000000038004400440048000F
:102120007F000000380054005400540018000000E4
:1021300008007E0009000100020000000C005200AF
:10214000520052003E0000007F000800040004001E
:1021500078000000000044007D0040000000000006
:102160002000400044003D00000000007F001000FF
:102170002800440000000000000041007F004000F3
:10218000000000007C00040018000400780000003B
:102190007C000800040004007800000038004400BF
:1021A00044004400380000007C00140014001400B7
:1021B0000800000008001400140018007C00000053
:1021C0007C000800040004000800000048005400DF
:1021D000540054002000000004003F004400400070
:1021E000200000003C004000400020007C00000077
:1021F0001C002000400020001C0000003C004000AB
:10220000300040003C00000044002800100028007E
:10221000440000004C005000500050003C00000002
:102220004400640054004C0044000000000008001A
:102230003600410000000000000000007F000000A8
:10224000000000000000410036000800000000000F
:10225000080008002A001C000800000008001C00FC
:102260002A00080008000000882200080000002062
:102270006400000048190008EC22000864000020F7
:10228000C4040000581900080204060800000000F9
:10229000010203040102030406070809000000000C
:1022A0000000010000000000000000000000060027
:1022B000000000000000000000000000000000001E
:1022C00000000000000000000053544D333246313E
:1022D000307820493243204669726D7761726520FB
:0C22E000000000000000000000000000F2
:0400000508000131BD
:00000001FF
